:020000040000FA
:06000000020B85020275EF
:03002B0002094F78
:030043000207DDD4
:030053000201AAFD
:03006B000207B7D2
:100083000202090100F0FF0700080000FFFF000063
:10009300070400000F0001FF0502640A2FAC092FBB
:1000A300AC09C0C1C2C3C4C5C6C7C8C9CACBCCCDBD
:1000B300CECF5A6967426565416C6C69616E636551
:1000C30030390100FFFFF2E0A161000000000001F0
:1000D300C088890C8F0C9B0C950C0020FD00020638
:1000E300FFFF0800A517141C000900A517201C001A
:1000F3000A00A5172C1C00000000000000000000EF
:10010300000000CF14D51400000000DB14C9140153
:1001130008040103010103F38703ED87095EC003AC
:100123000101027D8801C6880AE0A1030101027D65
:100133008801C6880104020000F817000000E803E4
:100143000000FFFF70180103E8030000640064006F
:10015300B801A0BB0D00A0BB0D0002020207040101
:100163000101051E02051E020A0A01010809080110
:1001730003B80B02803E0102FEFFE8030A050001FB
:10018300FFFF0A011401E002000000010503010161
:10019300FF0F10FEFF412B00000000152A00000096
:1001A30000FF000000FF00C0E074F112048CA2AF56
:1001B300E433F509D2AF85A708AFA1EF5508FE7464
:1001C300105E6006120E6375A1EF74085E6008127C
:1001D3000E6975A1F78024EFA2E092F0E508A2E092
:1001E30082F05017906198E0F89007C3E0C398A29B
:1001F300D265D0335002E8F075A1FEE509A2E09282
:10020300AF7F020204EBC0E074F212048CA2AFE4ED
:1002130033FED2AF9061A4E0F8759B00E59158548A
:100223000860087591F7120EB78023E591585410B2
:1002330060087591EF120EBD8014E591A2E092F073
:10024300E8A2E082F05007E0C2E0F01210079061EC
:10025300A3E0F8E5E9585404600E120FDD75E9FBDD
:10026300906193E0A2E640F2EEA2E092AF7F01023A
:1002730004EBC0E074F212048CA2AFE433FED2AFFD
:100283009061A5E0F8E5BF585404600675BFFB1202
:10029300101F80D4C3E498F8E499F91202D8802699
:1002A300C3E49AFAE49BFBE920E7E91202D8E49855
:1002B300F8E499F922C3E498F8E499F91202D8E42E
:1002C30098F8E499F9C3E49AFAE49BFB22EB20E75C
:1002D300CFE920E7E0B90010BB0008E88AF084F812
:1002E300AAF022E4FBC8FA22EB70227B10C833C8C1
:1002F300C933C9335007C39AC3DBF280069A50014E
:100303002ADBEAC833F4C8C933F4C9FA2275F00802
:10031300E4C833C8C933C933C99AC99B5004C92A2D
:10032300C93BD5F0ECFBC833F4C8E4C9FA2208088A
:1003330008EAC0E0EBC0E086F0E7A4FA180986F00B
:10034300E7A42AFA180986F0E7A42AFA180986F01E
:10035300E7A42AFA1986F0E7A4FBE5F02AFA1908BC
:1003630086F0E7A42BFBE5F03AFA190886F0E7A438
:100373002BFBE5F03AFA18180986F0E7A4C5F02B31
:10038300FBE43AFA1908E7C5F0C6A426F6E5F03B04
:10039300FBE43AFA1886F0E7A4F6E5F00826F6E45B
:1003A3003B08F6E43A08F6D0E0FBD0E0FA22E4CFCB
:1003B300C0E0E4CEC0E0E4CDC0E0E4CCC0E075F042
:1003C30020E626F608E633F608E633F608E633F6C3
:1003D300181818EC33FCED33FDEE33FEEF33FFC397
:1003E300EC9709ED9709EE9709EF97191919400F43
:1003F300FFEC97FC09ED97FD09EE97FE191906D559
:10040300F0BFECF709EDF709EEF709EFF719191942
:10041300D0E0FCD0E0FDD0E0FED0E0FF222510C507
:1004230082C0E0E51134FFC583C0E0E510C39582C7
:1004330024F810AF08858311858210800885831105
:10044300858210D2AFCEF0A3E520F0A37808E608AA
:10045300F0A3DEFAEFF0A3E58124FAF8E608F0A3AF
:10046300E608F0A3E608F0A30808E608F0A3E60808
:10047300F0A315811581D0E0FED0E0F81581158138
:100483001581E8C0E0EEC0E022C0D02510C582C0CF
:10049300E0E51134FFC583C0E0E510C3958224F382
:1004A30010AF0885831185821080088583118582AA
:1004B30010D2AFC8F0A3E9F0A3EAF0A3EBF0A3795D
:1004C30008E709F0A3D8FAECF0A3EDF0A3EEF0A34C
:1004D300EFF0A3D0E0F0A3D0E0F0A3D0E0F0A3E5E9
:1004E30020F0A3E5F0F0A322851183851082E0C0FC
:1004F300E0A3E0F9A3E0FAA3E0FBA37808E0F608A1
:10050300A3DFFAE0FCA3E0FDA3E0FEA3E0FFA3E08A
:10051300C0E0A3E0C0E0A3E0F5D0A3E0F520A3E0B2
:10052300A3F5F010AF0885831185821080088583B9
:1005330011858210D2AFD082D083D0E0F8D0E032E0
:10054300120BFFB90003020582E490050178877955
:10055300178002F0A3D8FCD9FA7A877B1B90008618
:10056300782579028015E493A3AD82AE838A828BCA
:1005730083F0A3AA82AB838D828E83D8E9D9E775F2
:1005830082E37583E774061208E075820D7583288C
:1005930074001208E075F0108E128F138582178590
:1005A3008316851082851183E0CEA3E0CF85178261
:1005B300851683EBC9EAC8EDCBECCAC3E833C8E9B7
:1005C30033C9EA33CAEB33CBC3EA9EF515EB9FF588
:1005D30014B35004AB14AA15EC33CCED33CDD5F0E2
:1005E300DAAE12AF1322D083D082ECC0E0EDC0E0CC
:1005F300E493A3FCE493A3FDED4C600D1206C1EC60
:1006030024FFFCED34FFFD80EFE493A3FCE493A30C
:10061300FDED4C600D120762EC24FFFCED34FFFD91
:1006230080EFD0E0FDD0E0FCE493A3C0E0E493C00E
:10063300E022851183851082E0A3FEE0A3F52078F4
:1006430008E0A3F608DFFAE0A3FFE0A3C0E0E0A31D
:10065300C0E0E0A3C0E0E0A3C0E0E0A3C0E010AFCF
:10066300088582108583118008858210858311D2C5
:10067300AFD083D0820208E6D083D082E9C0E0E421
:1006830093A3C386F0C5F095F0F908E493A386F02D
:10069300C5F095F0700BE493A3C3994005E904807A
:1006A30002A3E475F002A42582F582E5F03583F513
:1006B30083D0E0F9E493A3C0E0E493C0E022C0E078
:1006C300C3E49396087401939618400FE4936670FD
:1006D3000808740193661870007019A3A3C3E49308
:1006E30096087401939618A3A3400DD0E0D0E0D0F0
:1006F300E0020625A3A3A3A3A3A3D0E0227404804E
:10070300087403800474028000CCC0E0EDC0E0E50F
:1007130010C39CCCAD1150011D10AF068C108D1170
:1007230080068C108D11D2AF120844D0E0FDD0E0CA
:10073300FC2274028000CCC0E0EDC0E0E510C39C55
:10074300CCAD1150011D10AF068C108D1180068C9D
:10075300108D11D2AF120822D0E0FDD0E0FC22C0F0
:10076300E0C0F088F0E4936670080874019366189B
:100773007000A8F0A3A3700BD0F0D0E0D0E0D0E0DD
:10078300020625A3A3D0F0D0E022D083D082CCC030
:10079300E0E493A360061208651470FAE493A3607F
:1007A300061209E21470FAD0E0FCE493A3C0E0E47B
:1007B30093C0E022C0E074F212048CA2AFE433FED3
:1007C300D2AFE589A2E15003120D7F758900C2C53E
:1007D300EEA2E092AF7F010204EBC0E074F21204D8
:1007E3008CA2AFE433FED2AFC2C0E5D1A2E4500382
:1007F300120DD3EEA2E092AF7F010204EBA2E792C7
:10080300D65002F40430F70663F0FF05F0B340035B
:1008130084800384F40430D60563F0FF05F022CA14
:10082300C0E0E493A3C582CCC582C583CDC583F064
:10083300A3C582CCC582C583CDC583DAE5D0E0CA22
:1008430022CAC0E0E0A3C582CCC582C583CDC583DF
:10085300F0A3C582CCC582C583CDC583DAE6D0E0DB
:10086300CA22C0E0E493A3D39C5010E493A3C39C97
:10087300400AD0E0D0E0D0E00207AAA3A3A3D0E0CF
:10088300227009080808226016181818C6C333C650
:1008930008C633C608C633C608C633C6D5E0EA223F
:1008A300C008C3E096F50808A3E096420808A3E051
:1008B30096420808A3E09645087001D3D00822C5E4
:1008C300822510C582C583351110AF07F5118582C6
:1008D300108007F511858210D2AFC58322C09FF522
:1008E3009FE473D09F22D083D082C09FE493C0E063
:1008F300740193C0E0740293F59F222510F58210D2
:10090300AF08F510400C15118008F51040021511C1
:10091300D2AF851183227404800A740380067402A3
:1009230080027401C0E0F4041208FED0E0120BC28E
:100933002200C0D0251010AF08F510500C0511800F
:1009430008F51050020511D2AFD0D022C0E0C0D0BC
:10095300E8C0E0A8A8D2AFC2C7E8A2E792AFD0E050
:10096300F8D0D0D0E032BB0102E722C082C0838935
:10097300828A83BB0003E08002E493D083D0822287
:100983006016080808C6C313C618C613C618C613CC
:10099300C618C613C6D5E0EA222510F8E43511F9C6
:1009A300222510FAE43511FB222510FCE43511FD54
:1009B30022C3E0C696F608A3E0C696F608A3E0C6EF
:1009C30096F608A3E0C696F622251010AF08F51098
:1009D300400C15118008F51040021511D2AF22C04A
:1009E300E0E493A36C7009D0E0D0E0D0E00207AA62
:1009F300A3A3D0E022E76670100809E766700A082F
:100A030009E76670040809E76622E066701008A328
:100A1300E066700A08A3E066700408A3E06622C3D8
:100A2300E09608A3E09608A3E09608A3E096A2D276
:100A330065D03322C3E49396087401939608740235
:100A43009396087403939622C3E096F008A3E09666
:100A5300F008A3E096F008A3E096F022C3E697F629
:100A63000809E697F60809E697F60809E697F622D5
:100A7300E046F608A3E046F608A3E046F608A3E03E
:100A830046F622E627F60809E637F60809E637F6BA
:100A93000809E637F622E026F608A3E036F608A3AF
:100AA300E036F608A3E036F622E056F608A3E05651
:100AB300F608A3E056F608A3E056F622E493F608F8
:100AC300740193F608740293F608740393F622E014
:100AD30026F008A3E036F008A3E036F008A3E036DA
:100AE300F022700422600D18C6C333C608C633C68D
:100AF300D5E0F41822E647F60809E647F60809E6C2
:100B030047F60809E647F622E056F008A3E056F058
:100B130008A3E056F008A3E056F022E657F60809CA
:100B2300E657F60809E657F60809E657F622E046BF
:100B3300F008A3E046F008A3E046F008A3E046F07F
:100B430022E4C396F608E496F608E496F608E496DB
:100B5300F622C6F4C608C6F4C608C6F4C608C6F428
:100B6300C622C3E09608A3E09608A3E09608A3E094
:100B73009622C3E7960809E7960809E7960809E766
:100B8300962275D00075813F75100175110500021D
:100B93000543600C08C6C313C618C613C6D5E0F4D4
:100BA30022E6F008A3E6F008A3E6F008A3E6F022A5
:100BB300E0F608A3E0F608A3E0F608A3E0F622CAED
:100BC300C0E0E6F0A308DAFAD0E0FA22EAF0A3EBF9
:100BD300F0A3ECF0A3EDF022E0FAA3E0FBA3E0FC2A
:100BE300A3E0FD22E0F8A3E0F9A3E0FAA3E0FB22EF
:100BF300E8F0A3E9F0A3EAF0A3EBF022E5C754F889
:100C03004401F5C77901222510F582E43511F583F6
:100C130022C2AF75D69F020000221208E93EEE05FC
:100C23001208E994EE051208E907EF051208E94BEB
:100C3300EF051208E9A3EF051208E9C5EF0512084D
:100C4300E955F0051208E9E2F0051208E92EF1056D
:100C53001208E95AF1051208E99BF1051208E93473
:100C6300F3051208E912F4051208E9F2F405120873
:100C7300E98DE0021208E9C0E0021208E9FDE00292
:100C83001208E9C0E2021208E9C5E5021208E9F810
:100C9300E5021208E9EEE8021208E9C4EB021208C1
:100CA300E95EEC021208E97AEF021208E949F00260
:100CB3001208E9C3F1021208E945F2021208E969D0
:100CC300F3021208E9CAF5021208E953F602120800
:100CD300E95DF8021208E991FA021208E9CBFB0276
:100CE3001208E9D4FB021208E9E5FB021208E92E17
:100CF300FC021208E903C1051208E903C60512083C
:100D0300E967C6051208E988C7051208E989CB0512
:100D13001208E9BACF051208E9F0D1051208E9343F
:100D2300D2051208E954D4051208E9F7F3061208AC
:100D3300E908F4061208E9FDFF011208E9E8FF02D9
:100D43001208E94FF0061208E95FF0061208E97786
:100D5300F0061208E9DFF0061208E94AEF06120866
:100D6300E9CEEF061208E936F0061208E901FF039F
:100D73001208E91DFF031208E974FF031208E9AC26
:100D8300FF031208E906C6061208E914C60612088C
:100D9300E98DC6061208E966C7061208E924CA06E1
:100DA3001208E97FF1061208E9B7F1061208E95EB5
:100DB300B7061208E9CBB7061208E983B80612088A
:100DC300E9F9B8061208E90DBA061208E99DBB064F
:100DD3001208E906BC061208E955BC061208E95ECA
:100DE300BC061208E96DBC061208E983BC061208AA
:100DF300E996BC061208E99FBC061208E92AF90124
:100E03001208E956F9011208E952FC011208E992A5
:100E1300FC011208E9CEFC011208E9E2FC01120808
:100E2300E9FBFC011208E918FE011208E9D5FE01ED
:100E33001208E9E9FE011208E9B8EC061208E9DC38
:100E4300EC061208E9F5EC061208E933ED06120880
:100E5300E963ED061208E990ED061208E9F6ED06DE
:100E63001208E9F9ED061208E903EE061208E91083
:100E7300EE061208E9AEE0061208E9CEE006120813
:100E8300E90DE1061208E92BE1061208E946E1063D
:100E93001208E9ACE1061208E9B8E1061208E915FF
:100EA300E2061208E924E2061208E948E2061208FB
:100EB300E909E3061208E916E3061208E927E3063F
:100EC3001208E93EF3061208E956F3061208E9820E
:100ED300F3061208E9ACC1061208E908C3061208B2
:100EE300E916C3061208E929C3061208E93EC30638
:100EF3001208E953C3061208E966C3061208E9E2B9
:100F0300C3061208E947C4061208E9DDC40612083D
:100F1300E9B6C5061208E9C6C5061208E9D5C5062D
:100F23001208E94BFF051208E96FFF051208E9975C
:100F3300FF051208E9BFFF051208E955E306120889
:100F4300E97CE3061208E99AE3061208E900E406DD
:100F53001208E9DBDD061208E9F4DD061208E900F0
:100F6300DE061208E914DE061208E932DE0612086C
:100F7300E93CDE061208E946DE061208E959DE06F8
:100F83001208E9DFDE061208E954DF061208E983D6
:100F9300DF061208E9D1DF061208E920E00612088D
:100FA300E93BE0061208E945E0061208E956E006C7
:100FB3001208E999E0061208E9A4F2061208E9C644
:100FC300F5051208E9F2F5051208E90FF60512080E
:100FD300E922F6051208E93DF6051208E997F60538
:100FE3001208E9C5F6051208E9D6FA051208E9342C
:100FF300FC051208E966FC051208E9C9FC0512089C
:10100300E935FE051208E95DFE051208E972FE05E1
:101013001208E982FE051208E9C2FE051208E90476
:10102300FF051208E914FF051208E91AEE06120873
:10103300E934EE061208E95CEE061208E975EE06DD
:101043001208E999EE061208E9B7EE061208E9CE8E
:10105300EE061208E9FCEE061208E917EF0612087D
:10106300E985F3061208E952DA061208E962DA069C
:101073001208E967DB061208E999DB061208E9C9D9
:10108300DB061208E9ECDB061208E903DC061208AA
:10109300E93DDC061208E9A2DC061208E9E4DC06F5
:1010A3001208E92BDD061208E958DD061208E98368
:1010B300DD061208E9F27F001208E9F57F00120845
:1010C300E9F87F001208E954EB061208E974EB060D
:1010D3001208E988EC061208E98BEC061208E933DA
:1010E300FF041208E969FF041208E985FF041208E6
:1010F300E9C7FF041208E9D7FF041208E99CA80610
:101103001208E9A6A8061208E9DAA8061208E923D4
:10111300A9061208E9A4A9061208E9C3A906120838
:10112300E9DCA9061208E982AA061208E98BAA06D5
:101133001208E9DCAA061208E905AB061208E9124F
:10114300AB061208E97DAB061208E905AC061208E6
:10115300E94DAC061208E987AC061208E9F5AC06BE
:101163001208E91EAD061208E997AD061208E9EF69
:10117300AD061208E92CAE061208E961AE061208A4
:10118300E973AE061208E985AE061208E9A4AE06B5
:101193001208E9ADAE061208E961AF061208E9A923
:1011A300AF061208E9E3AF061208E9EDE9061208F3
:1011B300E9A5E5061208E9DBE5061208E923E606D8
:1011C3001208E97CE7061208E98A6A001208E9BBFB
:1011D3006B001208E9F26B001208E99E6D00120819
:1011E300E9CF6D001208E96370001208E9A37000EB
:1011F3001208E93672001208E9D572001208E92DC7
:1012030073001208E9B373001208E9ED73001208C2
:10121300E92F74001208E9B975001208E95877003C
:101223001208E9B379001208E9E179001208E90A22
:101233007A001208E9137A001208E9697A001208A1
:10124300E9047B001208E9D67E001208E9647F00F6
:101253001208E9D7FF031208E9EDFF031208E9EBCF
:10126300F1061208E9B1CE061208E9C7CE06120844
:10127300E96BCF061208E9AACF061208E9C7CF0621
:101283001208E9F8CF061208E945D0061208E979F1
:10129300D0061208E9B4D0061208E9BBD206120838
:1012A300E9FDFE011208E95CFF011208E99AFF015A
:1012B3001208E9DBFF011208E90080041208E90CB7
:1012C30080041208E9A781041208E9B18104120815
:1012D300E94B82041208E98782041208E94C83046B
:1012E3001208E9B183041208E93984041208E97A7F
:1012F30084041208E9FA84041208E9E8860412084F
:10130300E9EB88041208E9028A041208E9888A04CE
:101313001208E9038C041208E94A8D041208E9A3B0
:101323008E041208E91893041208E90F94041208B2
:10133300E99394041208E9B894041208E9DD9404CB
:101343001208E96695041208E98495041208E9A2D3
:1013530095041208E90896041208E92C9604120869
:10136300E95996041208E97597041208E95A980492
:101373001208E9D799041208E97D9A041208E9C40E
:101383009A041208E93E9B041208E9C19B0412085F
:10139300E9249C041208E9819C041208E9359D04A0
:1013A3001208E9A09D041208E9DC9D041208E95023
:1013B3009E041208E9BA9F041208E9C7A10412089F
:1013C300E994A2041208E92EA3041208E943A30432
:1013D3001208E973A3041208E9E3A3041208E91B42
:1013E300A4041208E988A4041208E936A504120823
:1013F300E958A7041208E913AA041208E93CAB044C
:101403001208E967AF041208E92EB0041208E9BF15
:10141300B1041208E968B3041208E91FA006120810
:10142300E99CA0061208E9BDA0061208E91AA20663
:101433001208E93FA4061208E912A7061208E9AE4A
:10144300A7061208E9CBA7061208E975EF041208EC
:10145300E907F0041208E97EF0041208E93CF404F9
:101463001208E9F2F5041208E958F8041208E9F73A
:10147300F9041208E9B6FC041208E9E0FC041208B6
:10148300E910FD041208E97AFD041208E906FE04D6
:101493001208E917FE041208E91EFE041208E9BB4C
:1014A300FE041208E9F8FE041208E9EEAB0512087F
:1014B300E922AD051208E9C6AD051208E9CDB0056C
:1014C3001208E9E2B1051208E907B2051208E98B2F
:1014D300B2051208E91BB3051208E9D9B3051208CE
:1014E300E967B4051208E9CEB5051208E978B6052F
:1014F3001208E963B7051208E95CB8051208E98127
:10150300B8051208E998BF051208E919C0051208C1
:10151300E9C17F001208E90BD5041208E93AD504A2
:101523001208E9B4D5041208E917D7041208E90A26
:10153300D8041208E984D9041208E9A9D9041208C5
:10154300E9FBD9041208E98DDA041208E9D9DA04AF
:101553001208E9ECDA041208E94EDB041208E98BFD
:10156300DB041208E975DC041208E9D0DC04120874
:10157300E930DE041208E916DF041208E95BE0042F
:101583001208E940E1041208E9C7E1041208E90975
:10159300E2041208E928E2041208E973E2041208DB
:1015A300E993E2041208E950E3041208E96EE40443
:1015B3001208E9E3E4041208E92BE5041208E92D13
:1015C300E6041208E9DDE8041208E903E904120855
:1015D300E96AE9041208E98FE9041208E906EA0452
:1015E3001208E9DEEA041208E91CEB041208E99D7B
:1015F300EB041208E98BEC041208E98EEC041208E0
:10160300E998EC041208E9A2EC041208E9BEEC0420
:101613001208E927ED041208E960ED041208E97CD9
:10162300ED041208E9A3ED041208E9C7ED0412085A
:10163300E902EE041208E975EE041208E9A9EE04C2
:101643001208E9B3EE041208E9EEEE041208E923E6
:10165300EF041208E942EF041208E9EFF206120858
:10166300E907F3061208E9FB7F001208E90FB00649
:101673001208E95EB0061208E91CB2061208E9D4A2
:10168300B3061208E912B4061208E903B5061208F4
:10169300E93FB6061208E961B6061208E9ABB606D9
:1016A3001208E92EB7061208E916D6031208E9351F
:1016B300D6031208E9C7D6031208E910D7031208A4
:1016C300E96CD7031208E9F3D7031208E94FD803EB
:1016D3001208E952D8031208E999D8031208E91548
:1016E300D9031208E99FD9031208E9A2D903120802
:1016F300E920DA031208E967DA031208E946DF038F
:101703001208E9C6E0031208E903E1031208E9AE8F
:10171300E4031208E9E7E5031208E9B9E60312084E
:10172300E967E7031208E9ACE7031208E925EA03CE
:101733001208E9E0EC031208E9E1ED031208E9AA53
:10174300F0031208E916F1031208E919F20312086B
:10175300E952F5031208E962F5031208E9C5F60335
:101763001208E916F7031208E90FF8031208E975DE
:10177300F9031208E9CEF9031208E95BFA03120828
:10178300E988FB031208E9FFFC031208E935FD03AE
:101793001208E94FFE031208E96396051208E908E7
:1017A30097051208E97C97051208E997970512082F
:1017B300E94398051208E99198051208E9D39805B9
:1017C3001208E94699051208E95B9A051208E99996
:1017D3009D051208E9B79E051208E9389F0512080E
:1017E300E947A1051208E9F9A1051208E97CA20558
:1017F3001208E965A3051208E909A4051208E970AE
:10180300A4051208E99AA6051208E9EFA70512082C
:10181300E916A9051208E9A3A9051208E9B0AA0562
:101823001208E963B5041208E9CBB5041208E913F9
:10183300B6041208E94FB6041208E9C7B604120841
:10184300E920B7041208E95BB7041208E9B1B70449
:101853001208E919B9041208E940B9041208E95356
:10186300BA041208E959BB041208E9B4BB0412080C
:10187300E9BBBC041208E9E3BC041208E92FBE0467
:101883001208E940BE041208E958BE041208E96CC4
:10189300BF041208E973C0041208E97CC0041208EB
:1018A300E993C0041208E9CDC0041208E9ECC004AE
:1018B3001208E903C1041208E9F2C1041208E9F3AA
:1018C300C2041208E91BC3041208E925C304120861
:1018D300E994C3041208E97FC4041208E9F0C404BC
:1018E3001208E96FC5041208E9A6C5041208E93A0B
:1018F300C6041208E913C8041208E913C90412083C
:10190300E96FC9041208E9E7CA041208E97CCC04A8
:101913001208E9E3CE041208E9BDD0041208E9670E
:10192300D1041208E9DFD1041208E9FBD10412083B
:10193300E906D3041208E9F9D3041208E968D404C8
:101943001208E994FC021208E944FE021208E9D9DC
:101953009F061208E974FF021208E9A3D6061208CB
:10196300E9C1D6061208E905D7061208E92BD706FE
:101973001208E952D7061208E96AD7061208E90CD9
:10198300D8061208E94ED8061208E976D9061208D5
:10199300E97FD9061208E988D9061208E991D90620
:1019A3001208E99BD9061208E9B2BC061208E9F04D
:1019B300C0061208E9FEC0061208E910ED05120878
:1019C300E961E8061208E9CBF3061208E945F206D5
:1019D3001208E955F2061208E979CA061208E9E97C
:1019E300F0061208E913F1061208E9E1FF041208F0
:1019F300E90080031208E93380031208E99A80039F
:101A03001208E92681031208E9CD81031208E915BA
:101A130082031208E93A82031208E9538203120887
:101A2300E97982031208E9B782031208E9068303FE
:101A33001208E92F83031208E98E83031208E9676A
:101A430084031208E91D85031208E97B8503120844
:101A5300E94186031208E98B86031208E9E286034B
:101A63001208E94D87031208E98B87031208E9E19D
:101A730087031208E9FD87031208E928880312087F
:101A8300E9378A031208E97D8B031208E9A98B035E
:101A93001208E9DD8B031208E9FE8B031208E90D36
:101AA3008C031208E9188C031208E9C88C03120886
:101AB300E9378D031208E9E48D031208E9208E0348
:101AC3001208E9DE8E031208E9EB8F031208E938E6
:101AD30090031208E9C790031208E9219103120841
:101AE300E96691031208E9F593031208E94F950398
:101AF3001208E99B98031208E97999031208E9503F
:101B03009A031208E9799A031208E9EA9A03120878
:101B1300E9809B031208E96F9C031208E9949C0374
:101B23001208E9F79D031208E9159E031208E92834
:101B33009E031208E9D49E031208E9E49E031208E7
:101B4300E9DA9F031208E956A0031208E98FA003FC
:101B53001208E99DA1031208E9D9A1031208E9B407
:101B6300A3031208E995A7031208E99FA703120824
:101B7300E9B3A7031208E9BDA7031208E9C7A7033E
:101B83001208E9D1A7031208E9EAA7031208E9F446
:101B9300A7031208E964A8031208E96FA80312084F
:101BA300E997A8031208E9A2A8031208E9F0A80319
:101BB3001208E9FAA8031208E905A9031208E9299A
:101BC300A9031208E94DA9031208E9AAA9031208F7
:101BD300E9F0A9031208E90CAA031208E993AA037E
:101BE3001208E9CAAA031208E909AB031208E95665
:101BF300AB031208E9D8AB031208E984AC0312085B
:101C0300E960AE031208E9CEAE031208E9FAAF03A6
:101C13001208E920B0031208E979B1031208E9D1E7
:101C2300B4031208E90AB7031208E9E8B803120873
:101C3300E981B9031208E9A6BB031208E95ABC03F8
:101C43001208E993BC031208E9F9BC031208E9037B
:101C5300BD031208E92DBF031208E938C0031208B7
:101C6300E980C0031208E934C1031208E9D7C203AB
:101C73001208E95EC4031208E97EC4031208E9D11D
:101C8300C4031208E9D1C5031208E9F9C503120810
:101C9300E95CC6031208E93FC7031208E9B1C703A9
:101CA3001208E9C3C8031208E947C9031208E94542
:101CB300CA031208E9DBCC031208E9FACC031208C1
:101CC300E945CE031208E913D0031208E967D003EC
:101CD3001208E91FD1031208E9CCD1031208E92540
:101CE300D2031208E9EAD2031208E980D3031208E7
:101CF300E9E7D3031208E929D4031208E95AD40304
:101D03001208E9BAD5031208E90080021208E93281
:101D130080021208E96B80021208E9568202120857
:101D2300E99882021208E97C83021208E9D483024B
:101D33001208E91785021208E96385021208E98F80
:101D430088021208E9038C021208E94B8D0212087B
:101D5300E9E18D021208E9ED8D021208E92D8E02E8
:101D63001208E9C28F021208E9B690021208E9E0EC
:101D730090021208E93791021208E99091021208C1
:101D8300E90192021208E93694021208E9CD95029C
:101D93001208E9A196021208E9E897021208E9403D
:101DA3009A021208E9119D021208E9209D02120805
:101DB300E9A49D021208E9599E021208E99C9E02B9
:101DC3001208E9FA9E021208E9169F021208E9486E
:101DD3009F021208E9879F021208E96DA002120808
:101DE300E91CA1021208E9A2A3021208E9D8A4027D
:101DF3001208E9BFA5021208E93FA6021208E94C3E
:101E0300AA021208E98AAA021208E9F1AA02120830
:101E1300E924AB021208E9B7AB021208E9EAAB0204
:101E23001208E985AC021208E9D3AC021208E9A64C
:101E3300AD021208E96DAE021208E90BAF021208F7
:101E4300E915B2021208E929B3021208E9CFB60272
:101E53001208E9D1B7021208E9D4B7021208E9035C
:101E6300B8021208E902BA021208E9DBBA02120840
:101E7300E900BB021208E97FBC021208E9FEBC02BA
:101E83001208E9F7BD021208E9ADBE021208E9BE65
:101E9300C0021208E929C1021208E971C10212083D
:101EA300E9CCC1021208E9A4C5021208E999C602E5
:101EB3001208E993C7021208E964C8021208E96824
:101EC300C9021208E97CC9021208E990C902120882
:101ED300E9C6C9021208E9F6C9021208E9B4CB023D
:101EE3001208E944CC021208E9C8CC021208E9B985
:101EF300CE021208E9E9CE021208E9A8CF021208BD
:101F0300E945D0021208E9F0D1021208E9DBD20256
:101F13001208E91AD3021208E98CD3021208E9D194
:101F2300D4021208E984D5021208E9B8D5021208CE
:101F3300E9D0D5021208E973D6021208E961D90281
:101F43001208E92CDB021208E950DB021208E96EE1
:101F5300DB021208E942DC021208E96FE002120810
:101F6300E9C8D2061208E908D3061208E9D4D40650
:101F73001208E9E3D4061208E90080051208E9C44F
:101F830084051208E91985051208E957870512081F
:101F9300E9FB88051208E98B89051208E9E78B0537
:101FA3001208E9EE8D051208E9458E051208E93994
:101FB30090051208E96B90051208E9A39005120831
:101FC300E9C990051208E92791051208E949910525
:101FD3001208E95091051208E96891051208E92CE5
:101FE30092051208E92393051208E9C9880112082A
:101FF300E90189011208E91A8E011208E9608E01CC
:102003001208E9B28F011208E92490011208E9933A
:1020130091011208E98794011208E9AB95011208AE
:10202300E9C99F011208E952A0011208E9AFA3010F
:102033001208E9BEA4011208E919A5011208E9670B
:10204300A6011208E951A7011208E9FCA901120827
:10205300E982AB011208E90FAC011208E912AC01E5
:102063001208E93DAC011208E9E8AC011208E9D80D
:10207300AD011208E991AE011208E9AFAE011208F1
:10208300E9C4AE011208E9EDAE011208E91AAF0185
:102093001208E95AB1011208E927B2011208E96CE2
:1020A300B2011208E9E3B2011208E991B30112087F
:1020B300E9C3B3011208E909B4011208E93CB40108
:1020C3001208E981B4011208E9D2B4011208E9D770
:1020D300B4011208E92BB5011208E994B5011208FD
:1020E300E95DB6011208E9A8B6011208E90DB701C6
:1020F3001208E969B7011208E907B8011208E97380
:10210300BB011208E98EBC011208E91ABE011208CC
:10211300E93BC1011208E9DDC1011208E9EEC4017E
:102123001208E9A9C5011208E9F1C5011208E9A0DD
:10213300C7011208E9B4C7011208E9BEC7011208B2
:10214300E9C8C7011208E9D4C7011208E9FCC701AD
:102153001208E9E0C9011208E939CA011208E94382
:10216300CA011208E94DCA011208E9C2CA011208DC
:10217300E90DCB011208E90ECC011208E965CC0187
:102183001208E96FCD011208E9B8CD011208E96818
:10219300CE011208E94BCF011208E91ED001120843
:1021A300E970D1011208E993D2011208E98BD30136
:1021B3001208E9A3D3011208E9DAD3011208E9E40A
:1021C300D3011208E9EFD3011208E90DD401120873
:1021D300E955D4011208E9B3D4011208E9DAD401AC
:1021E3001208E9ECD4011208E987D5011208E9BC09
:1021F300D5011208E9AED6011208E9F0D60112089A
:10220300E9D4D7011208E9FBD7011208E968D8011C
:102213001208E9E0D8011208E964DA011208E99129
:10222300DB011208E966DC011208E929DD01120865
:10223300E9D0DD011208E915DF011208E9D3DF0156
:102243001208E93FE0011208E9FBE0011208E94C3A
:10225300E1011208E9A6E1011208E977E201120897
:10226300E99AE2011208E95BE3011208E97DE3015F
:102273001208E9DEE3011208E926E6011208E92A59
:10228300E7011208E9E1E7011208E902EA0112088D
:10229300E94CEA011208E997EA011208E9F2EA01B6
:1022A3001208E95FEB011208E98DEB011208E9B1AD
:1022B300EB011208E9E6EB011208E913EC0112083D
:1022C300E959EC011208E9ADEC011208E901ED014D
:1022D3001208E924EE011208E9C4EF011208E90F1C
:1022E300F0011208E938F0011208E9CBF0011208F5
:1022F300E943F1011208E951F1011208E975F1010D
:102303001208E9CCF1011208E9E7F1011208E9A486
:10231300F2011208E9D0F2011208E913F3011208DD
:10232300E976F3011208E966F5011208E993F5016C
:102333001208E985F6011208E992F7011208E94B40
:10234300F8011208E98A8B061208E9C28B06120803
:10235300E9E38B061208E9278C061208E98B8C0641
:102363001208E9958C061208E9A58C061208E9DC27
:102373008C061208E9D490061208E9E292061208C4
:10238300E9CF94061208E96695061208E90896064D
:102393001208E92F2F001208E9D82F001208E9AF1D
:1023A30030001208E9B731001208E9D731001208EA
:1023B300E9EF32001208E9A934001208E91C3500DC
:1023C3001208E9B935001208E9D036001208E93DD0
:1023D30037001208E97837001208E9CD37001208F0
:1023E300E90838001208E95538001208E9E5380011
:1023F3001208E97239001208E9473A001208E92085
:102403003B001208E9AE3B001208E9CE3B0012087C
:10241300E9FB3B001208E92C3C001208E9FF3C00F1
:102423001208E90F3D001208E95E3D001208E96B4E
:102433003D001208E9743D001208E9E43D0012086A
:10244300E9443E001208E98F3E001208E9AA3E0063
:102453001208E9D13E001208E9EE3E001208E9FA3B
:102463003E001208E9A540001208E9BE4000120828
:10247300E94741001208E95A41001208E97941008D
:102483001208E91442001208E98443001208E92BF8
:1024930045001208E9BA45001208E9BD45001208D3
:1024A300E92D46001208E94B46001208E9F0460000
:1024B3001208E92C47001208E92F47001208E9F532
:1024C30047001208E95848001208E9914800120829
:1024D300E90649001208E92449001208E972490093
:1024E3001208E9474A001208E9954A001208E9E38D
:1024F3004A001208E9704B001208E9A54B001208C4
:10250300E9DA4B001208E9E84B001208E9474C00EE
:102513001208E9BF4C001208E9004D001208E95007
:102523004D001208E97B4D001208E9954D00120891
:10253300E9AF4D001208E98A4E001208E9944E00F3
:102543001208E9D54E001208E92D4F001208E9419F
:102553004F001208E97750001208E98C5000120866
:10256300E91A51001208E98251001208E9355200B4
:102573001208E94052001208E99053001208E9AC2E
:1025830053001208E9F853001208E96754001208CF
:10259300E9A054001208E9BA54001208E91A5500D8
:1025A3001208E9B955001208E90456001208E9C6F1
:1025B30058001208E97C59001208E90C5A00120865
:1025C300E9545C001208E96C5C001208E96F5C00D6
:1025D3001208E97B5C001208E98F5C001208E99796
:1025E3005C001208E9CA5C001208E9BD5D0012082C
:1025F300E9485E001208E9DB5E001208E9545F0057
:102603001208E91860001208E93A60001208E9D3D9
:1026130060001208E93061001208E9336100120812
:10262300E9AD61001208E9F962001208E9046400E7
:102633001208E98F64001208E99465001208E9544E
:1026430066001208E98566001208E9AB6600120805
:10265300E9B466001208E9E266001208E97A670045
:102663001208E92F68001208E9A068001208E94778
:1026730069001208E9CE69001208E90D6A00120820
:10268300E9506A001208E9DDED051208E9A59F0685
:102693001208E9529F061208E9D19D061208E9289B
:1026A3009D061208E9CB9C061208E9B79C0612089E
:1026B300E91A9C061208E9219B061208E94D9A06BD
:1026C3001208E93D98061208E93297061208E9E173
:1026D30096061208E9CAE7051208E9BDE7051208DC
:1026E300E9B3E7051208E936E7051208E9F0E6055C
:1026F3001208E98EE6051208E9C8E3051208E9AFF6
:10270300E1051208E97CE1051208E90EE10512086A
:10271300E9CEE0051208E9B6E0051208E9AAE005EA
:102723001208E977E0051208E9FBDD051208E96DF7
:10273300EC051208E9F8DD051208E921EC05120899
:10274300E992EB051208E94DEB051208E931EB05B7
:102753001208E9C2E8051208E994E8051208E9DA63
:10276300DD051208E9A7DD051208E9D1DB0512082A
:10277300E961E8051208E927DB051208E938DA05FB
:102783001208E976D8051208E9D2D6051208E93A03
:10279300D6051208E903C1061208E9EFD5051208A8
:1027A300E9E5E7051208E958D5051208E93F8B0664
:1027B3001208E9EA8A061208E9B28A061208E985CC
:1027C3008A061208E95D8A061208E9E789061208F3
:1027D300E9C789061208E9A089061208E96F860687
:1027E3001208E91184061208E9C581061208E947AF
:1027F30081061208E9FA80061208E9008006120829
:10280300E9AE80061208E90CFF0200000080FB001D
:102813000022E4738F000100871C87000100231945
:10282300350004004C1C25000200501C2600020049
:10283300521C27000200541C280001005E1C2900C2
:1028430001005F1C84000400FC1886000100951B36
:102853002A000100601C2B000100611C2C000100F8
:10286300671C2D00080009192E000100681C2F00A9
:102873000100691C300001006A1C310001006B1C5F
:102883003200010011193300010012193400010054
:102893006C1C360001001319380001006D1C39004F
:1028A3000100661C83000200841C630001001E19E2
:1028B30064000100621C65000100631C6D000100DF
:1028C3001F1971000800011966000100831C4300F1
:1028D3000100741C44000200751C45000100771CB4
:1028E30046000200781C4700080016194800010042
:1028F3007A1C4B0001007B1C04000100861CA10014
:1029030001008A1C37000100891C88000100881C13
:102913003C00010014193D0001006E1C4900020037
:102923007C1C6700010020194D0002007E1C4E0034
:102933000100801C4F000200811C3E000100731C3B
:10294300510001006F1C52000100701C5300010074
:10295300721C540001001519000000000000000162
:1029630036360101000102010001030100010401E7
:10297300060605020000070100340801000F0904E0
:1029830001010D0100FF0E080000170200001901EC
:1029930000FF1A0100011B0100FE1C0100081D02BB
:1029A30000001F010001200100012102000023019A
:1029B300000F24020000260100012701000828025D
:1029C30000FF2A0100072B0102402C0100002D010A
:1029D30000012E0100012F0100FF30010B1D310802
:1029E30000003A0100083B01000F3C0100013D01DA
:1029F30000FF3E04000042040000460400004A04B5
:102A030000004E04000052040000560400005A0463
:102A13000000010371030103010301030103010327
:102A23002203020301031003000300030003000356
:102A3300000300030003420300032403060300030F
:102A430000030403120325032303250323030403C1
:102A530004030003000300034403000300032303F0
:102A6300000365032100350381030003050300030D
:102A73000003000300032503230303027102300153
:102A830060021102700201020202020280021002BD
:102A930061023A004100630273027202620243025E
:102AA30000021302380000020002040212020002B4
:102AB30000020002000204020402370037003C0255
:102AC30044020002390000020002650200023502DE
:102AD30081020002050282028302000203047104E0
:102AE30002046004110470040204020401040204D9
:102AF3001004610400041404630473047204620484
:102B03004304000413040604000400040404120430
:102B130000040004000400045104640000040004E1
:102B230000044404000400040004000465040004D9
:102B330035048104640005040004830400040300D5
:102B43007100300160001100700031022003500455
:102B53008000100061000000140063007300720025
:102B630062004300000013000600000000000400A0
:102B73001200000000000000000004000400370001
:102B830037003C0244000000000000000000650024
:102B930000003500810000000500000083000000F4
:102BA3000101710101010101110101013101010162
:102BB30001018001100161013B00140063017301F5
:102BC3007201620143010001130106013D01350059
:102BD30004011201000100010001000104010401CC
:102BE300330133013C01440132013600000100018D
:102BF30065010001350081010001050182018301A6
:102C030000012100100020819C1B21001100438141
:102C130000002100120020839D1B2100130020834C
:102C23009E1B2100140020839F1B2100150043815C
:102C33003B05210016001A81A01B210017001A81F1
:102C4300A31B2100200018833D0521002100F183EF
:102C5300A61B21002200F183B61B2100FDFF218169
:102C6300C61B36000100060000000F000000000034
:102C7300000000000000000003FFFF00000403FF4A
:102C8300FF0000FFFF0FF4010005C404032000014F
:102C930000000B000000000000000003010F000013
:102CA3000000000000000000000000000000000021
:102CB3000000000000000000000000000000000011
:102CC300A913EB13AF13D712B513F113B513FD13F8
:102CD300BB13D712B513F11300000000C113D712B1
:102CE300000000000000000000000000C713D7121E
:102CF300CD130314D313D71200000000000000000B
:102D030000000000D9131514DF13D712D9131514BB
:102D1300DF13D712CD130314E513D71213002717AC
:102D23001F002D171F8033170000C9170100C91793
:102D33000200D3160280CD160300D9160400DF1655
:102D43000480E5160500EB160600F7163100091797
:102D530033000F173400151736001B17FFFF000051
:102D63000A00000002000000040000000800000048
:102D73001000000020000000400000008000000060
:102D83000001000000020000000400000008000031
:102D93000010000000200000004000000127200672
:102DA30057200851200B632010BB1C022D20054522
:102DB300200733200C0F200D1B2064CF1AFF0000C7
:102DC30007ECFDFDFDECDCDCCCBCACAC9C9C8C7C52
:102DD3007C6C6C5C5C5C4C4C3C3C2C2C1C1C03EAFB
:102DE300F5E5D5D5C5B5A595958585757565655500
:102DF3005545453535252515150500160F00000BDE
:102E0300150B020002220F3300000E0F5A696742AE
:102E13006565416C6C69616E63653039C0C1C2C35D
:102E2300C4C5C6C7C8C9CACBCCCDCECF0001020327
:102E33000405060708090A0B0C0D0E0F303016188F
:102E43001920231A1C1E30303017181921301B1D6E
:102E53001F30003C40423A3F3F392F4730000119B1
:102E6300161816161823030000034D4C4651181A62
:102E73002505020C0E020B040B0A0708000F0204BF
:102E83000201010101090200BE040AE80300000E69
:102E9300000000E8030C00030000007F00050300AE
:102EA30004091E100A0C03081E030C280004040264
:102EB30009033C0C05080408FFE4F0A3F0A3F0A306
:102EC30022122EBCF022125C4A24081243672212FB
:102ED3002ED622E0F508E4F509F50AF50B22E824DD
:102EE300FBF582E934FFF58322F583122EF222E00B
:102EF300F508A3E0F5092212267574041209347F3C
:102F0300080206357401F09007DBE0640F227409B0
:102F13001209347F04020635A3A3E024F5C39413F6
:102F2300229007FB125EC47A147B0022C082C08306
:102F3300901A6674F3F0A37423F0A37405F0A374DA
:102F430024F0901A6A74DBF0A37423F0A374D5F011
:102F5300A37423F0A37411F0A37424F0A37417F0E3
:102F6300A37424F0A3740BF0A37424F0A374C3F02C
:102F7300A37423F0901A7674E7F0A37423F0A37478
:102F8300EDF0A37423F0A374E1F0A37423F0A3740E
:102F93001DF0A37424F0901A87124F276006125372
:102FA300761211C3901A841247EC7408F0A3E4F06C
:102FB300A3F0901B30F0901A89F07C0BFDF97A8A0C
:102FC3007B1A1211157C0B7D0079007A957B1A12FE
:102FD300111502464474F712042074F71209CCEA5F
:102FE300FEEBFF1245A2740512309D7403F01230FC
:102FF300721230792430FCE43FFD8C828D83E088AB
:1030030082898312308660081238D374FFF0A3F0EC
:10301300EE242EE43F1C1CFD8C828D83A3E0C0E0D4
:103023008A828B831245A9D0E012308688828983F5
:10303300124E5824031259F31212B37408120C0AD5
:103043007403F09007F012070874021209AC7903B5
:10305300EEFAEFFB1225A97402120934E9F50870A0
:1030630007EEFAEFFB12248FA90874090238DFEE8A
:103073002402FAE43F22FB8A828B83123095124AA0
:1030830041EE22124E84123095124A418C828D8376
:10309300E0221248FC8A828B8322F0A3E4F01230F0
:1030A300A522EE240DF582E43FF5832274F0120489
:1030B30020EAFEEBFF8C0C8D0D890B123072124847
:1030C300F37410120C0AE0F508A3E088828983F0F8
:1030D300E824FFF582E912349DE508F0E824FEF5C3
:1030E30082E912349DE50BF09007F5E0C0E0E82497
:1030F300FDF582E912349DD0E0F09007F4E0C0E0E2
:10310300E824FCF582E912349DD0E0F07412120C2D
:103113000A122EEE122EE1E509F0E824FAF8E9345A
:10312300FFF988828983E508F0EE2404FCE43FFD7F
:1031330088088A828B83E0F50E8C828D83E0250ECE
:10314300C39508124E84124A3D850C82850D83A3D4
:10315300A3A3A3A3A3A3A3E0640370081248EDF001
:10316300A3E480031234A21230A07409F075088A14
:1031730075091A750A00780812091D12348B121189
:103183000374031209347508FF7509FF78081209DF
:1031930021AC0CAD0D7903EEFAEFFB1225A97402F5
:1031A300120934E9F5087007EEFAEFFB12248FA930
:1031B30008022F02C082C083901AA6E0C39408407D
:1031C3000474078001E08A828B83F033333354F82D
:1031D300F902464474F01204208A088B09890A8C88
:1031E3000E8D0F750C00A2AFE433F50BC2AF901A2E
:1031F300A080451232D3503D1232E264037036E5AB
:103203000824F9F508E50934FFF5098E828F83A3B5
:10321300A3E02405FCA3E03400FDAA08AB091212C5
:10322300B3E50824FFF508E50934FFF50974102513
:103233000CF50C150A1236B0126941E50A6004EE6A
:103243004F70B0E50BA2E092AFA2AFE433F50BC22F
:10325300AF901AA08038124E4F12404985088285DC
:103263000983124E841232D9A3A3E0C0E0E50824F7
:10327300FFF582E50912349DD0E0F0E50824FEF560
:1032830008E50934FFF509050C150A1236B01235A5
:103293000A60211232E2640270F11232D3EE40B6B8
:1032A3001246D6A2E550E4850E82850F837401F0A1
:1032B300E50A70D7E50BA2E092AF85088285098302
:1032C300E50CF0E50824FFFAE50934FFFB022F02C1
:1032D3001236BFA2E6221232DD22124E79A3228ECB
:1032E300828F83A3A31245AD1255B02274F012044A
:1032F3002074F31209CC7403120C0AE9F07402125D
:103303000C0AEAF08B0B851082851183E4F004121A
:1033130009A41223A5E9F89007DAE0292437F50870
:10332300FA7B0012112D8A0C8B0DAE0CAF0DEE4FF4
:103333007003023482EE2402F50EE43FF50FA80871
:10334300EE28F8E43FF9850E82850F831252279009
:1033530007DAE0F9FAC3E49AFA95E0FB850E828571
:103363000F83E02AF50CA3E03BF50D9007D8122E4E
:10337300EE750A00780812091DE9FC7D00AA0CAB62
:103383000D1211037403120934AC10AD1174011240
:103393000C0AE0F9E50C24FFFAE50D34FFFB1223D8
:1033A300AB8A828B83E4F0E50BC454F0F9901B31B4
:1033B300E0C4333354C0F89007D4E0A2E0E43313FD
:1033C300134849440FC0E0EA24FFF582EB12349D11
:1033D300D0E0F0EA24FEF50CEB34FFF50D74031294
:1033E3000C0AE0F87402120C0AE0C454F048850C8D
:1033F30082850D83F0A80C850E82850F83125C13E2
:103403002AC3988E828F83A3A3A3A3F0850E8285FC
:103413000F83E8F0A3E50DF01234A21230A0E4F01C
:10342300740C120C0AE4F075089575091A780812E1
:10343300091D12348B12110374031209348510828F
:10344300851183E06009EE240E1246D84408F01279
:103453002591E9F9E4F508F50978081209217406BC
:103463001209ACEEFAEFFB1225A97402120934E932
:103473007006EEFAEFFB800BEEFAEFFB1211337AD4
:10348300007B00740D022EFF7C0B7D00EE241BFAE3
:10349300E43FFB22EE24FFF582EF34FFF583221293
:1034A300596CE4F0A32274F21204208A0C8B0DA24F
:1034B300AFE433F50AC2AF750800750900901AA08E
:1034C300802C1236CA5024850C82850D83A3A31247
:1034D30059768E828F83A3A3125379122597E960BD
:1034E3000A1236BBC2E6F08E088F091236B01235C7
:1034F3000A70CFE508450960061235A3D2E6F0E568
:103503000AA2E092AF800DE0FEA3E0FFEE4F22742B
:10351300021209347F0602063574F01204208A0E63
:103523008B0F8C0C8D0D750A00A2AFE433F50BC223
:10353300AF7E007F00901AA08010AE08AF0912354D
:103543009B1246D6D2E7F01244C31244D960341218
:1035530035A3A2E750F1850882850983A3A3120747
:1035630008AC0CAD0DAA0EAB0F12259D7402120907
:1035730034E960D3EE4F60C212396B70061235AE78
:10358300D2E4F0E50BA2E092AFEE4F60061224897D
:10359300750A01A90A022F021236BFD2E4F0EE2205
:1035A300E5081258963509F583E0228E828F83A3AE
:1035B300A31245ADE02274F212042074FE1209CC6A
:1035C300750C00750D00851082851183E4F0A3F05E
:1035D300A2AF33F50AC2AF901AA01269418035EE4B
:1035E30024FBF582EF34FF122EEC780C120921EE46
:1035F300FCEFFD7AA07B1A1211637402120934EEF8
:10360300FCEFFDAA10AB11121151AE08AF09901ACD
:10361300A6E014F0EE4F602B1236CA501DEE240BB9
:10362300F8E43FF988828983E024FFF0A3E034FFC4
:10363300F088828983124F2760A58E0C8F0D123676
:10364300B08097E50AA2E092AF901AA6E0603190AD
:1036530007DBE0640F6006901B30E070237A7E7B0B
:103663001A1226819088311207007A7E7B1A12265D
:10367300757404120934800874F0124ADD12247D33
:10368300AA10AB111211578A088B09AE08AF09EEC5
:103693004F60131223B71236BBA2E28E828F83A32D
:1036A30050D674E980D40235128E0A8F0BEE24FBB8
:1036B300F582EF34FFF583221236BF22EE2411F593
:1036C30082E43FF583E0221236BFA2E72274F712A9
:1036D3000420EAFEEBFF1223B71245A6122815E9D0
:1036E30064019007F7700AE02401F8A3E034008036
:1036F30003124526F9124CB1124A3D901AA6E07006
:10370300219007DBE0640F70197A7E7B1A12268101
:103713009088311207007A7E7B1A12267574041280
:103723000934A8A8C2AF901AA6E004F0E8A2E78083
:1037330004E508A2E092AF024BA074F7120420EA5A
:10374300FEEBFF123772F01223B7EEFCEFFD7AA007
:103753007B1A12115DA8A8C2AF901AA612409C90C2
:1037630007DBE0640F70057908122549024BA012AC
:1037730036BFC2E42274F712042074EA1209CCEAB9
:10378300FEEBFF9007D4E0603C85108285118374C3
:1037930001F0120C0AE412384A120C0AAA82AB8313
:1037A3001212B31235AEC0E0740A120C0AD0E01242
:1037B3005C2F740B120C0AAA82AB831225C1AA10C8
:1037C300AB111219A974160238DF74F7120420EA38
:1037D300FEEBFF122399E9F974DC69601E74DD695D
:1037E300601974E469601474F369600F74DE6960CE
:1037F3000A74DF69600574DB697007EEFAEFFB1288
:10380300254F024BA074F712042074EB1209CCEA83
:10381300FEEBFF851082851183740612384A120C61
:103823000AAA82AB831212B3EE2408FCE43FFD74B0
:103833000A120C0AAA82AB831225C1AA10AB111279
:1038430019A974150238DFF0EE2413FCE43FFD746C
:10385300022274F712042074F71209CCEAFEEBFF7C
:10386300EE24301246D8606512413FAA10AB111204
:1038730012B37408120C0A7403F09007F0120708CD
:103883001238D3120708900803E0F974041209AC44
:10389300EEFAEFFB12239F7404120934E9F974DC86
:1038A30069602374DD69601E74E469601974F369E7
:1038B300601474DE69600F74DF69600A74E869601C
:1038C3000574DB697007EEFAEFFB12254F02306DCA
:1038D300EE242EF582E43FF58322740312093402A9
:1038E3004BA074F21204208A0C8B0D750A00750B21
:1038F300007508E7A2AFE433F509C2AF901AA080C0
:10390300031236AC12350A60361236CA50F3123936
:103913006B70EEEE24321246D8F88A828B83A3A30F
:10392300E06870DD780A120921EEFCEFFD7AA07BD6
:103933001A1211637402120934901AA6E014F0E506
:1039430009A2E092AFEE4F6013EEFAEFFB1223B73A
:1039530079F0EEFAEFFB12254F750800A908AA0CBF
:10396300AB0D12254F0235171230A5E06401227406
:10397300F412042074F71209CCEAFEEBFF8E828F57
:1039830083A3E064F37003023A1C8E828F83A3E067
:1039930064DF7003023A1C8E828F83A3E064E860C5
:1039A300788E828F83A3E064DB606E1223F9E9F5DE
:1039B30008705EEE240E1246D86056123A26122480
:1039C3003BEA4B604C7408120C0A123A3012070897
:1039D3007508FF7509FF78081209218E828F83A36A
:1039E300A3A3A3A3A3A3A3E0F974041209AC122312
:1039F3009F7404120934E9F50874F36508601274BE
:103A0300DF6508600C74E86508600674DB650870A0
:103A13000F8E828F83A3E508F0EEFAEFFB122405E5
:103A2300022F11EE240FFAE43FFB790922740212EC
:103A3300538874FFF0A3123A3D22123A4122124EE8
:103A430061A3A32274F1120420EAFEEBFF750800C0
:103A53008E828F83A3A3A3A3A3A3122F1B4003755B
:103A630008E88E828F83A3A3A3A3A3A3A3A3A3A3E3
:103A7300E0C3941040057508E880138E828F83A3FA
:103A8300A3A3A3A3A3A3A3A3A3E0640F600B901B0F
:103A93000DE0540870037508E8EE240B1246D8F8BD
:103AA3008E828F83A3A3A3A3A3A3A3A3A3A3E0C3F0
:103AB30098500DEE240B1246D8640F60037508E886
:103AC3009007F4E0F47003A3E0F470037508EC7A54
:103AD300237B001211BD8A0A8B0BA80AA90B901A2B
:103AE30087123B1A60298E828F83A3A3A982AA839C
:103AF300890C8A0D750E00780C12091D7C237D003C
:103B0300901A87E0FA1211037403120934800375C3
:103B1300081AA90802595F124A41E8492274F512AA
:103B23000420EAFEEBFF8E828F83A3A3A3A3A3A3A8
:103B3300A3A3E09007DB1262E79007F61262CD9031
:103B430007D61262EC901B31F0F9120F65901B310E
:103B5300E06018EE2404FAE43FFB7950120F4DEEB7
:103B63002406FAE43FFB79E1120F4D901B30122F2C
:103B7300076004740180027400901A891262D312E0
:103B8300091D7C0B7D007A8A7B1A121103740312C0
:103B93000934EE2418F508E43FF509780812091DE5
:103BA3007C0B7D007A957B1A02484B74F712042034
:103BB300EAFEEBFF8E828F83A3E070061253761228
:103BC30023FF124AD712255B024BA074F71204207D
:103BD300EAFEEBFF901A87124F27600D125376907F
:103BE3001A87E4F0A3F01211C38E828F8374081234
:103BF3004ADD1219A9024BA074F6120420901B305F
:103C0300E06013901A89E0700D123C1C1223B1EA94
:103C13004B600312248F025F4F9007D6E0FB90079F
:103C2300F6E0FA9007DBE0F92274F412042074E75B
:103C33001209CCEAFEEBFF750B018E828F83A3A3DF
:103C4300A3A3A3A3A3E0A2E25068EE242BF582E48E
:103C53003F125974124B681223BDE970559087EBDC
:103C6300E064017005750B008048123CF812091DD1
:103C73007C0B7D0074111209A41211037403120941
:103C830034122591E9FA740E12099C88088909787F
:103C930008120921750830750900780812092112E4
:103CA3003CEA120708125BFD79011225AF74061274
:103CB3000934851082851183741012384A120C0A54
:103CC300AA82AB831212A7123CEA125EC0740B12D3
:103CD3000C0A124A3D740D120C0AE50B12488B12A2
:103CE30019A97419022F13123CEE22EE242BF5822C
:103CF300E43FF58322EE24081262DB22C082C083F4
:103D0300901B31E06003122603024644C082C08345
:103D1300901B287466F0A3741AF0A3746AF0A3745A
:103D23001AF0A37476F0A3741AF0901CA174DFF058
:103D3300A3742AF0901B127493F0A37423F0901AC7
:103D4300AB74C9F0A37423F0901AAD74CFF0A374CD
:103D530023F0901B0DE04402024175C082C083EA48
:103D6300FCEBFD7903024ECFC082C0837908026069
:103D7300CDC082C08374FE1209CC901AB37477F05D
:103D8300A37424F0901AB57471F0A37424F0800D19
:103D93007AA07B1A12115712488112257F901AA01C
:103DA300124F2770EB901AA2124F27600F7AA27B53
:103DB3001A12115712488112257F80E9901AA0E444
:103DC300F0A3F0901AA6F0A3F0A3F0901AC174B375
:103DD300F0A37424F07402800274111209340246B1
:103DE3004474F6120420E9FF745529F582E4342E55
:103DF300F583E493FEFA7B0012112DEA4B6013EA7C
:103E03002E124721E8F0A3E9125C4FA3A3A3E4F029
:103E1300802C7A027B0012112DEA4B601D744A2F0D
:103E2300F582E4342EF583E4938A828B83F0A374C2
:103E33001AF0901B08E0F91211397A007B00025F37
:103E43004FE9FC740629F8EAA2E0501EE875F00A6F
:103E530084E5F0F96014740A28C399F8E9C394055A
:103E63004004740A28F8740B28F8ECC39413400434
:103E7300791480027906E82979002409F8500109A8
:103E83007A0A7B001202D0E8F90208E6C082C083F6
:103E9300901B0DE05402600A1219AFE96004790126
:103EA30080027900024644C082C083901B0DE05417
:103EB300026016901AA6E0700C124F24600BE0C843
:103EC3001244D05004790180027900024644C08232
:103ED300C0839087E8E0F8901AA8E0C398500512D1
:103EE300112D80047A007B00024644C082C08312F5
:103EF300257F7900024644C082C08374FE1209CC38
:103F0300851082851183EAF0A3EB124078A3A3A363
:103F1300A3A3E0600A14605D24FE6060023FD790B3
:103F230007DBE0640F6018122555E97012851082D3
:103F3300851183125379901AAF1245A9122815904F
:103F43000803E0C0E0851082851183124E31D0E072
:103F530012407874141258B0FCA3E0FD7AA27B1AC5
:103F6300121151A8A8C2AF901AA812409C7920122E
:103F73002549023DD812403C741580D912403CA318
:103F8300A3A3A3E0604E12403C1235B2C0E08510FB
:103F930082851183125C22124056D0E01258B0245D
:103FA30002F8A3E03400F988828983E02401FAA3AC
:103FB300E03400FB88828983EAF0A3EB1258B01245
:103FC3004370851082851183601312404960051286
:103FD300405F4048AA10AB1112257F8095124049DB
:103FE30060F212405F502112406CFA8510828511F5
:103FF30083A3E0C8240612433BF87480125069344B
:104003002EF583E4936A6014851082851183124030
:1040130049640870BF12406C640870B812406C1495
:10402300124080240AC0E08510828511831245A9BD
:10403300D0E012408004023F58851082851183A38B
:10404300E0F58388822212404D22124526C8124091
:1040530056E0222406F582E438F583228510828512
:10406300118312404DC3940A228510828511831255
:1040730032DDA3E02212408AF58388822212408A2D
:10408300C8240612436722F08510828511831245E6
:104093002622A8A8C2AF901AA7E004F0E8A2E792EC
:1040A300AF22C082C083901AB7124F276008124014
:1040B300431228158002790002464474F712042043
:1040C300EAFEEBFF1230A574011246E012596412A6
:1040D300308124351246D8C0E0EE2413F582E43F44
:1040E300F583D0E0F0EE24361246D8C0E0EE241477
:1040F300F582E43FF583D0E0F0EE24381246D8C0D1
:10410300E0EE2418F582E43FF583D0E0F0EE242FAF
:10411300F582E43FF58312070812413FEE24311282
:1041230046D8F91225A97402120934E9F508700773
:10413300EEFAEFFB12248FA908024BA0EE2426FC13
:10414300E43FFD22C082C083122555E96004792033
:1041530080027901024644C082C083EA24111241DD
:104163006BD2E0800DEA240DF582E43BF583E02277
:10417300F0A3F0024644C082C08312416864017018
:1041830011124207400C8A828B83A3E0F912254F58
:10419300806FEA241012416BA2E650128A828B834D
:1041A300A3E0F9901AB11245A912281580531241C0
:1041B300686401700D12420750088A828B83743041
:1041C30080368A828B83A3E0641B8A828B8370048C
:1041D30074228024A3E0700D124168F8743F1250DA
:1041E30069342E800B124168F8744A125069342ED8
:1041F300F583E4938A828B83F0901B08E0F9121114
:1042030039024644EA2410F582E43BF583E0A2E355
:104213002274F7120420E9FE124F2470030243367E
:10422300EE6011741B6E7013E0C81243396405709D
:104233000302430412433FE402430874E96E7061CE
:1042430012435F700B1219B5E9600512437A60617E
:1042530079EE120ECF901AA912435C901AA9603A14
:1042630012437D901AA9700B12435C14F01210854F
:1042730002433612436FC2E712450C1243396403FB
:10428300700B125C1F241112433BD2E2F079ED1242
:104293000ECF12434F122815807512434274E980E2
:1042A3006474E16E703E1219B5E9605512437A7079
:1042B300509007FDE0C0E0125C1F2412F582E43841
:1042C300F583D0E0F09007ECE0C0E0901AA9124328
:1042D3004B12434BD0E0F09007ECE004F07901126D
:1042E300106D804F741C6E7018901AA91253799038
:1042F3001AB91245A9122815901AA9E4F0A3F0805F
:104303003212433FEEF0901AA912537912247D1210
:1043130044EDE054806010900803E0F9120F899097
:104323000802E0F9120F7D901AA9E4F0A3F07910C6
:10433300122549024BA0240D12436722901AA91299
:104343004346221245B1A322124E7522901AA91296
:10435300537D901AAD1245AD22E0F8A3E0C82412B4
:1043630012436722F582E438F583E022E0F8A3E004
:10437300C8241012436722901AA91244F4E054048B
:104383002274F4120420750A00750B00A2AFE43303
:10439300FEC2AF124F2460030244791245A61228CD
:1043A30015E94410F8901AA0800985080A85090BBD
:1043B3001244C31244D970030244791235A35868D6
:1043C30070E8780A120921AC08AD097AA07B1A12A9
:1043D30011637402120934901AA9E508F0A3E509E0
:1043E30012450C1244D05003024480901AA7E014E3
:1043F300F0EEA2E092AF901AA9E0240EF8A3E03405
:1044030000F9E8FEE9FF8E828F83125379901AA98F
:10441300124072F9122441E9901AA4F0A3125E41EA
:10442300E054806018125C1F241312433BF9120FEF
:1044330089125C1F241412433BF9120F7D1244EDC1
:10444300A3E05401605F901AA4124F276045124500
:10445300036040124503F87900901AA412537912AD
:1044630002D8E8C0E01244E1D0E0124511C394132E
:1044730040117402800FEEA2E092AF8037901AA62B
:104483000243F17400C0E0901AAAE0C81244BAD003
:10449300E0800D1244E1740112450C1244BA740118
:1044A300F07903800C901AA912436FA2E1B3E433AD
:1044B300F912106D022F16241AF582E438F58322BF
:1044C300E50824FBF582E50934FFF58322125896AB
:1044D30012436AA2E722122EF2E508450922125C72
:1044E300472419F582E438F58322901AA91244F47B
:1044F30022124526C81244FC221258C038F58322E2
:10450300125C4724181243672212451EC822124523
:104513001EF5838882A3A3A3A3E022F0901AA91215
:10452300452622E0F8A3E02274F7120420EAFEEB0A
:10453300FF1225791246D5A2E3400A12396B7005A2
:104543009087E680039087E7E0F9EEFCEFFD7AA021
:104553007B1A121169E96037EEFAEFFB901AB31276
:1045630045A9122815EE240E1246D85404701112D0
:1045730040951245A2A3E054017021122489801CA6
:10458300EEFAEFFB901AAB1245A9122815800D8E97
:10459300828F83A374F1124ADD12247D024BA01291
:1045A300596C22901AB51245AD221245B122E0F89A
:1045B300A3E0F58388822202463D74F7120420EAC1
:1045C300FEEBFF7900901B0DE05402700CEE2433D8
:1045D3001246D85404600279E8901B0DE0546070D1
:1045E3000CEE24331246D85402600279E88E828F8F
:1045F30083A3A3A3A3E0F89087ECE0C398500279C8
:10460300E8EE24311246D8700CEE242E1246D870F0
:104613000479F5800BE9700512246BE9F9E9600769
:10462300EEFAEFFB12254F024BA0C082C0838A82B1
:104633008B83740DF01219A98007C082C0831224E2
:1046430089D083D0820208E674F4120420EAFEEBD8
:10465300FF8E828F83E4F0A31246E054049087E632
:104663007012E0F8901AA7E0C398401279F112256E
:104673004F022F16E0F8901AA6E0C39850EE1246A8
:10468300E6A3E054016039EE24371246D8C39405FB
:10469300403CEE24331246D8540570327ABB7B1A61
:1046A300122681EE2437F582E43FF583122ED27869
:1046B300081209197ABB7B1A12267574041209347D
:1046C300EEFAEFFB901B08E0F912113980A379E8A9
:1046D300809CEE2410F582E43FF583E022F012463D
:1046E300E6E022EE2433F582E43FF5832274F612EA
:1046F3000420E9FE2451FAE43400FB12112DEA4BA5
:104703006015EE8A828B83A3A3A3A3F0EA2451123C
:104713004721124A3D80047A007B00025F4FF8E490
:104723003BF98A828B83A3A32202463DC082C083C6
:10473300901AC474DDF0A37424F0A3740DF0A37471
:1047430025F0A374E3F0A37424F0A374E9F0A37435
:1047530024F0A37407F0A37425F0A374FBF0A374EF
:1047630024F0A374F5F0A37424F0A37413F0A374DA
:1047730025F0A37419F0A37425F0A3741FF0A37498
:1047830025F0A3742BF0A37425F0A374EFF0A374A6
:1047930024F0A374D7F0A37424F0A374D1F0A3740A
:1047A30024F0901AE07401F0A37425F0A37425F0AB
:1047B300A37425F0A37439F0A37426F0A37431F025
:1047C300A37425F0A37437F0A37425F0901B04E4BD
:1047D300F0901B07F0901AF01247EC7402F0901A55
:1047E300F91247EC74010241757449F0A37425F082
:1047F300A32274F512042074F11209CC851082856A
:1048030011837402F07401120C0AE9F060047AFF58
:104813007BFF7402120C0A1269C87508FC75091A29
:10482300750A00780812091D7C0B7D007407120CB1
:104833000AAA82AB831211037403120934AA10ABC0
:10484300111219A9740F800512110374031209348C
:104853007F0302063574F712042074FD1209CC8518
:104863001082851183740AF07401120C0AE9F07442
:1048730002120C0AEA12488B1219A90238DD8510BC
:1048830082851183EAF0A3EBF0AA10AB112274F630
:1048930012042074F71209CCEAFEEBFF1248ED1262
:1048A300309D7402124A2EAA10AB111212A7EE24E5
:1048B300311259DB1248F38A828B83E8F0A3E912A1
:1048C30046E0125A0012092174021209AC79831AC4
:1048D3001AEFFB1225A97402120934E9F5087007CF
:1048E300EEFAEFFB12248F025F4812596C74012217
:1048F300FB8A828B831248FC22E024FFF8A3E03476
:10490300FFF92274F0120420126483120BB37808A7
:10491300790C12033178081209197AF37B1A022EE3
:10492300FA74F412042074C61209CC9007DBE06415
:104933000F6010851082851183742E12488B122507
:104943005B80277AEA7B1A122681122F241202D85F
:1049530088088909E4F50AF50B78081209197AEA37
:104963007B1A1226757404120934743A022F1374D5
:10497300F5120420EAFEEBFF8E828F83A3E0F8603A
:1049830003024A17EE24301246D864026007E0643B
:1049930003600278E8EE2426F582E43FF583122FC4
:1049A3001D400478E88070E8706AEE2426FAE43F3C
:1049B300FB79E1120F4DEE2431FAE43FFB795012FB
:1049C3000F4DEE24301246D864027014EE2428F5FD
:1049D30082E43FF583125EC09007EA124A3D8012DB
:1049E3009007EA74FEF0A304124A2E7AE17B0712C1
:1049F30012B3EE241B123CFB12091D7C0B7D007AC3
:104A0300FC7B1A1211037403120934EEFAEFFB1242
:104A130024CBE9F8E86011E88E828F83A3125E420B
:104A23007417124ADD12255B024853F0EE2428FC6A
:104A3300E43FFD22125EC4901B85124A4122E8F036
:104A4300A3E9F02274F612042074F71209CC901B28
:104A530007E0703B7401F0F9121037AA10AB111282
:104A6300258B7508FC75091A780812092175080148
:104A730075090078081209219007F01207087406D7
:104A83001209AC7A0379051225AF740612093402B0
:104A93005F4A74F7120420EAFEEBFF790112103D1E
:104AA3008E828F83E064207004A374EBF0901B0765
:104AB300E0A2E25003C2E2F0E0A2E15008124CF39C
:104AC3001224C5800C8E828F83742A124ADD12252C
:104AD3005B024BA08E828F83742CF0EEFAEFFB22E5
:104AE30074F412042074FE1209CCEAFEEBFF790180
:104AF30012103D7AEA7B1A1226817AF37B1A122668
:104B030081124E3D851082851183124E6BE0F50BA9
:104B13007011AA10AB117953120F4D124B68794AD9
:104B2300120F4D123CF812091D7C0B7D007AFC7BA1
:104B33001A1211037403120934851082851183122A
:104B43005379A90B1224BF901B07E0A2E1500C7A02
:104B5300008E828F83A3E0F91224C5901B07E4F033
:104B63007402022F13EE2413FAE43FFB2274F712AC
:104B73000420EAFEEBFF8E828F83A374EBF0901B7D
:104B830007E0A2E150077A0079EB1224C5EEFAEFB1
:104B9300FB1224FB8007EEFAEFFB1225F77F0102DD
:104BA300063574F7120420EAFEEBFF790112103D7B
:104BB3007AEA7B1A1226817AF37B1A122681901BDA
:104BC30004E4F0901B07F07AFF7BFF8E828F83A3B0
:104BD300E0F91224BF80C674F7120420EAFEEBFF4B
:104BE3001224F580B174F7120420EAFEEBFF790179
:104BF30012103D8E828F83A3A3A3A3E060047400ED
:104C0300800274EB124C3A5003C2E2F0E0A2E1508E
:104C130008124D3C1224C58014A2E050108E828FDE
:104C230083742AF0A374EB124ADD12255BEEFAEFCC
:104C3300FB1224A1024BA08E828F83A3F0901B074B
:104C4300E0A2E22274F6120420EAFEEBFF901B07B7
:104C5300E0D2E1F079011210378E828F83A3E070E6
:104C63003C122591E9FAEE240DF508E43FF50978A5
:104C73000812092175080175090078081209211223
:104C83004CB1120708EE2402FCE43FFD790512251E
:104C9300AF7406120934E98E828F83A3F08E828F5C
:104CA30083A3E060067A00F91224C5025F4F124C19
:104CB300B522EE240BF582E43FF5832274F7120448
:104CC30020EAFEEBFF790112103D8E828F83E064B0
:104CD300207004A374EBF0901B07E0A2E25003C220
:104CE300E2F0E0A2E15006124CF31224C5024BA0FD
:104CF300C2E1F07A008E828F83A3E0F92274F71267
:104D03000420EAFEEBFF790112103D7AEA7B1A12C6
:104D130026818E828F83A3A3A3A3E0600474008003
:104D23000274EB124C3A5003C2E2F0E0A2E15006E7
:104D3300124D3C1224C5024C30C2E1123A3DA3E0AD
:104D4300A2E4E433FA8E828F83A3E0F92274F7128C
:104D53000420EAFEEBFF790112103D8E828F83A3BC
:104D630074EB124C3F5003C2E2F0E0A2E150061292
:104D73004CF31224C5024BA074F7120420EAFEEB95
:104D8300FF7AEA7B1A122681EEFAEFFB12251F0245
:104D93004B9974F7120420EAFEEBFF7AEA7B1A12AE
:104DA3002681EEFAEFFB12251F024BA074F71204C3
:104DB3002074EF1209CCEAFEEBFF125BFD7AE17B74
:104DC300071212A1E960628510828511837409F0CC
:104DD3007401120C0A74EFF0124E3DF87402120CB7
:104DE3000AE8124E6BA3A3E0C0E07404120C0AD0CD
:104DF300E0124E58640870158E828F83A3A3124E5F
:104E030031E0C0E07405120C0AD0E080067405128C
:104E13000C0AE4125C2F7406120C0AAA82AB8312EA
:104E230025C1AA10AB111219A974110238DF125C43
:104E33004A2407F582E438F58322EE124E4F125EC0
:104E4300C488828983E0FCA3E0F9EC221259E9FBD0
:104E53008A828B8322124E5C22124E61E022F08EF4
:104E6300828F83A3A3A3A322F0A3E9124E84124E3D
:104E73007522124E7922E0F8A3E0F5838882A3A37A
:104E830022F08A828B8322C082C0831226030246C9
:104E930044C082C083901B2474C4F0A3741AF0A38B
:104EA30074E0F0A3741AF0901C9B74A3F0A3742B0A
:104EB300F0A3747DF0A3742AF0901B1074B9F0A3CF
:104EC3007424F0901B0DE044010241751225670222
:104ED300464474F612042074FE1209CC901B091286
:104EE3004F2760077A097B1B12257F901B0FE4F085
:104EF30090177E124F2760248007AA10AB1112254A
:104F03007F901B08E0F91211458A088B09A808A9AC
:104F130009851082851183123B1A70DE7402025FC9
:104F23004C901AA9125EC4E8492274F7120420E9CE
:104F3300FA7B00901B08E0F912116F024BA074F783
:104F430012042074F01209CCEAFCEBFDE9FE8C821A
:104F53008D83E0F87476125069342EF583E493C0A0
:104F6300E07401120C0AD0E0F0640B700DEE8C8239
:104F73008D83A3F01225E5025064E07003025064B0
:104F8300640C6003025055741A6E700B7404120C97
:104F93000AE4F0A30250547404120C0AECF0A3EDDB
:104FA300F0EC2432F582E43DF583E0C0E0740312B3
:104FB3000C0AD0E01261A2120BE77406120C0A125B
:104FC3000BF38C828D83125EB7740A120C0AE8F01D
:104FD300A3E912506EE05410600985108285118395
:104FE300E48017EC2412F582E43DF583E0F89007A2
:104FF300FDE0C398851082851183F0E0C0E0740C56
:10500300120C0AD0E0F0EC2415F582E43DF583E0C0
:10501300C0E0740D120C0AD0E0F0EC2416F582E423
:105023003DF583E0C0E0740E120C0AD0E0F0EC24EE
:1050330017F582E43DF583E0C0E0740F120C0AD04B
:10504300E012506EA3E0540160087401120C0A745C
:1050530011F07402120C0AEEF074011209A4121971
:10506300A974100238DF28F582E422F0EC1258C04C
:105073003DF58322C082C083901B0FE0640370045C
:1050830079018002790002464474F7120420901BD0
:105093000FE0125107749928F582741C39F58312B5
:1050A30055F2C2E7F012510EA3E493FE25E0FCE4AF
:1050B30033FD74992CF582741C3D125974EC4D60C8
:1050C30005EE901B0FF08A828B83E025E0FCE4332E
:1050D300FDE82CF582E93DF583E493FCC4540F25E8
:1050E300E0F8741E125069341BF583124F277005C4
:1050F3001225D3800CEC540F12510E1245A912281D
:1051030015024BA025E0F8E433F92225E0FCE82C56
:10511300F582E439F5832274F212042074FE120935
:10512300CC890B8A088B09125208FA7B0012112DC5
:105133008A0C8B0DAE0CAF0DEE4F602E8E828F83DB
:10514300E50BF0A3E4F0F50A780812091D125215D5
:10515300123073FB1211037403120934EEFAEFFBDE
:10516300901B08E0F9121139801285108285118392
:10517300E50BF0791AAA10AB1112254F0235127400
:10518300F012042074FE1209CC890B8A0E8B0F12C5
:105193005208F508FA7B0012112D8A0C8B0DAE0C08
:1051A300AF0DEE4F60468E828F83E50BF0A3E4F0E4
:1051B300A808EE28F8E43FF98E828F83A3A3125246
:1051C30027850E08850F09F50A780812091D125262
:1051D300151234901211037403120934EEFAEFFB23
:1051E300901B08E0F912113979008014851082852B
:1051F3001183E50BF0791AAA10AB1112254F791A16
:105203007402022EFF746B29F582E4342EF583E4D5
:105213009322A80B7460125069342EF583E493FC37
:105223007D00EE22124A418E828F83A3A3A3A3E4BF
:10523300F022C082C083E9901B0802417574F61204
:10524300042074FE1209CCEAFEEBFFEE542070300A
:105253008039A8A8C2AF901AA8E01412409E8A828F
:105263008B83125369901B0B1269C812255B85103F
:1052730082851183E0641560077A0B7B1B12257FFF
:105283007AA27B1A121157EA4B70C7EF548070123F
:10529300801C901B0B1269C812255B7A0B7B1B12B7
:1052A300257F901B08E0F9121145EA4B70E4EE5498
:1052B30010600E851082851183742D12488B122580
:1052C3005BEEA2E0500E8510828511837424124890
:1052D3008B12255BEE5402600E8510828511837458
:1052E3002512488B12255BEE5404600E85108285CF
:1052F3001183742612488B12255BEE5408600E85C9
:105303001082851183742812488B12255BEE54405A
:1053130060107401120C0A125383742C12488B12FE
:10532300255BEE548060107401120C0A12538374CF
:105333002F12488B12255B901B09124F276020A860
:10534300A8C2AF901B09125379901B09E4F0A31272
:10535300409E1269C712255B7A0B7B1B12257F7A4D
:10536300007B00024F1F12536D22E08510828511CE
:1053730083F022901A8712537D22E0FAA3E0FB22E6
:10538300E412538822F085108285118322C082C0E3
:1053930083901B0B125EC0EA687002EB6970079082
:1053A3001B0BE4F0A3F002464474F7120420EAFE58
:1053B300EBFFEE4F7003120D37A2AFE433F508C2D3
:1053C300AF8E828F83124F276028E824FBFAE934DB
:1053D300FFFB901B0B125976E86C7002E96D7007A6
:1053E300901B0BE4F0A3F08E828F83E4F0A3F01202
:1053F30011C3023734C082C083901B3274C7F0A339
:105403007425F0A374D9F0A37425F0A374DFF0A37B
:105413007425F0A3749BF0A37424F0A374E5F0A3A4
:105423007425F0A37495F0A37424F0A374A1F0A3DE
:105433007424F0901B407415F0A37426F0A374EB4E
:10544300F0A37425F0A374F1F0A37425F0A374FD05
:10545300F0A37425F0A374F7F0A37425F0901B3127
:10546300E4024175C082C0839007EAE064FE7003E2
:10547300A3E0F470097CE17D071212A7801C8A82E5
:105483008B83A3A3A3A3A3A3A3A37402F09007EA0C
:10549300125EC08A828B83124A3D024644C082C098
:1054A300839007F4C3E094FEA3E094FF40047903E0
:1054B30080027902024644C082C0831255FB8C826B
:1054C3008D831255B0687039740268701C8A828BA0
:1054D30083125509E06870298A828B83A3125509C8
:1054E300A3E068701C7901801A7403687013EC24BC
:1054F30005FC50010DEA2405FA50010B1212AD8090
:10550300027900024644A3A3A3A3A3E0F88C828DEF
:1055130083A3A3A3A3A32274F61204207E00740A18
:10552300120C0AE01255A4FF8A828B83A3A3A3A3C0
:10553300A3A3A3A3E06F706474026F704E8A828B7F
:1055430083C082C08388828983A3A3A3A3A3E0F536
:105553000888828983A3A3A3A3A3A3E0FBAA08D0FB
:1055630083D082E06A7003A3E06B70308882898302
:10557300A3A3A3E0FA88828983A3A3A3A3E0F9EA00
:105583006C7002E96D70157E01801174036F700CED
:10559300E82405FCE439FD1212ADE9FEEEF9025FE1
:1055A3004FF8A3E0F9888289831255B022A3E01350
:1055B30013543F540322C082C0838A828B83A3A3E4
:1055C300A3A3A3A3A3A3E0640270169007EA125552
:1055D300F2687003A3E06970047901800F79008099
:1055E3000BEAFCEBFD7AE17B071212A1024644129F
:1055F3005EC48A828B83E0228A828B831255B0F841
:105603002274F012042074FC1209CCE985108285FF
:105613001183F07402120C0AECF0A3EDF08A0A8BEA
:105623000B7508007402120C0A122EC9C0E0740133
:10563300120C0AD0E01258B0A2E75008750EFF759D
:105643000FFF800A9007F0E0F50EA3E0F50F851039
:1056530082851183E0C2E71258B5542060071258BF
:105663008274088004125882E41258B55404600707
:1056730012588D7480800512588D74101258B554C9
:1056830010600612586CE4800B9007FDE0C0E01236
:10569300586CD0E01258B5A2E050037508205408A6
:1056A300600674104508F5088A828B83A3A3E0245F
:1056B300FFFEA3E034FFFFEA125877C39402E040F1
:1056C3000F640B6009E0148E828F831258A6740353
:1056D3004508F508750900900810E0640170118A07
:1056E300828B83A3A3A3A3E0C3946740037509102C
:1056F300851082851183E0F50C750D00740E780C0E
:10570300120AE5E50D4509F509E0640270199007F1
:10571300F5126197F09007F4E0C0E0123497D0E0FF
:10572300F0EE24FEFE801CE06403701DEE24F9FEFF
:10573300EF34FFFF7C047D08EEFAEFFB1212B3EEA9
:1057430024FF1EEF34FFFF8003E0602F7401120C6F
:105753000AE060187414120C0AE0650E7004A3E0EA
:10576300650F700874404508F508800F8E828F839B
:10577300E50FF0123497E50E12589C7401120C0ACF
:10578300E0F50C750D00740A780C120AE5E50D4579
:1057930009F509E0640270237402120C0A12600B0B
:1057A3008E828F83F07402120C0A1235B4C0E01299
:1057B3003497D0E0F0EE24FEFE8020E064037021F5
:1057C300EE24F9FEEF34FFFF7402120C0A1259762D
:1057D300EEFAEFFB1212B3EE24FF1EEF34FFFF804D
:1057E30003E060197414120C0A126196F074141217
:1057F3000C0AE0C0E0123497D0E012589CEEF8EFA8
:10580300F9E824FF1EE934FFFFE50A125877700513
:105813009007E080039007ECE0FA04F0EA888289BD
:1058230083125E42E5091258A68E828F83E508F043
:10583300E50A2404F8E4350BF9E50A2402FAE43511
:105843000BFBEEFC8A828B83E0F50888828983E078
:105853002508C39C124E84EEF0A3EFF0850A8285DF
:105863000B83A3E4F0F9022EFDEA2412F582E4355A
:105873000BF58322240DF582E4350BF583E022EA50
:105883002410F582E4350BF58322EA125896350B82
:10589300F583222411F582E422F0EE24FEFEEF3498
:1058A300FFFF22F0EE24FF1EEF34FFFF2212538886
:1058B300E022F0EA1258C0350BF583E022240EF5FE
:1058C30082E42274F112042074FE1209CC85108242
:1058D300851183ECF0A3EDF0890B8A0E750A1A7417
:1058E30015120C0A12681F12243B8A0C8B0DAE0C86
:1058F300AF0DEE4F605F7413120C0AE0125964E8A7
:10590300F0A3E91230A0E50BF0750A00780812093C
:105913001D12348B12110374031209347411120C07
:105923000A1207087402120C0A125976A90EEEFA2B
:10593300EFFB1225A97402120934E9F50A7016E582
:105943000B24F960031470061236BBD2E5F0EEFAAD
:10595300EFFB12248FA90A74021209347F0702068F
:1059630035F8A3E0F912596C22EE1258C03FF583C3
:1059730022F583E0FCA3E0FD2274F612042074F701
:105983001209CCEAFEEBFF7801EE24321246D8600E
:105993000278051245A2E812309D74041259F312DD
:1059A30012A7EE242F1259DB12307924311246D874
:1059B300125A0012092174021209AC79031A1AEF60
:1059C300FB1225A97402120934E9F5087007EEFAEF
:1059D300EFFB12248F025F48F582E43FF583122E1A
:1059E300F2EE1259E9222402F8E43FF9E8FAE92237
:1059F300F0EE2426FCE43FFDAA10AB112288828935
:105A030083124E5C04F078082274F21204208A0890
:105A13008B09ECFEEDFF8A828B837405F0EE243252
:105A23001246D88A828B83A3A3F0EA2403F50AE4FF
:105A33003509F50B850A82F583E0F50CA3E0F50D36
:105A4300EE2425F582E43FF583120BE7E50C1258AB
:105A530096350DF583120BF3125BFDAA0CAB0D12F9
:105A630012A7850A82850B83126010FAA3E0FB88D4
:105A7300828983A3A3A31269C2EE242F1246D8C03E
:105A8300E0125C05D0E0125C3C2415F582E438F5A5
:105A930083E4125C3C1244FCE4125C2F850A828589
:105AA3000B83E02416FAA3E03400FB1225C18E8297
:105AB3008F83A3A3A3A3A3A3A3E0C0E0850A828546
:105AC3000B83125C22240DF582E438F583D0E012B7
:105AD3005C26FAA3E0FB850A82850B83125EC0E88D
:105AE300240BFCE439FD8A828B83E08C828D83F066
:105AF300A3E4125C4FE0F50B8C828D83A3E0450B8E
:105B0300125C4FA3E0FCEA2403FA50010BECA2E77A
:105B1300E433C0E0E8240FF582E439F583D0E0F004
:105B230074075C600478018002780075F0037407E1
:105B33005CA428F8EA28FAE43BFBE5082405F8E42A
